:020000041000EA
:1000000000B5324B212058609868022188439860DF
:10001000D860186158612E4B002199600221596106
:100020000121F02299502B49196001219960352056
:1000300000F044F80222904214D00621196600F024
:1000400034F8196E01211966002018661A6600F04E
:100050002CF8196E196E196E052000F02FF8012189
:100060000842F9D1002199601B49196000215960AB
:100070001A491B48016001219960EB211966A021F2
:10008000196600F012F800219960164914480160C1
:100090000121996001BC002800D000471248134993
:1000A000086003C880F30888084703B5996A0420EC
:1000B0000142FBD001200142F8D103BD02B5186610
:1000C0001866FFF7F2FF186E186E02BD00000240BE
:1000D000000000180000070000035F00212200005C
:1000E000F4000018222000A00001001008ED00E03C
:1000F00000000000000000000000000074B24E7A12
:1001000000200420F7010010C3010010C5010010F9
:10011000C1010010C1010010C1010010C101001097
:10012000C1010010C1010010C1010010C701001081
:10013000C1010010C1010010C9010010CB01001065
:10014000CD010010CD010010CD010010CD01001037
:10015000CD010010CD010010CD010010CD01001027
:10016000CD010010CD010010CD010010CD01001017
:10017000CD010010CD010010CD010010CD01001007
:10018000CD010010CD010010CD010010CD010010F7
:10019000CD010010CD010010CD010010CD010010E7
:1001A000CD010010CD010010CD010010CD010010D7
:1001B000CD010010CD010010CD010010CD010010C7
:1001C00000BE00BE00BE00BE00BE00BEEFF3058054
:1001D000103800BEF2EB8871D8570010F4570010A9
:1001E0003402001090A31AE700201F49086006C8D7
:1001F00081F3088810471D48006800282FD10DA4FE
:100200000ECC002902D000F012F8F9E71849194A7B
:10021000002000E001C19142FCD1174988471749ED
:1002200088471749884700BEFDE701C901C29A42C5
:10023000FBD37047F4570010C0000020E4020020F8
:10024000185A00100000042000000420185A001062
:10025000001004200010042000000000704709482E
:1002600003F0DCF90047000008ED00E0000000D0DA
:10027000E8020020B0060020B91F0010050300109E
:100280007D1F00105756000006005250ABB360535C
:100290007457001006005250861C03028457001049
:1002A000060052505422A29D8C5700100500525057
:1002B000DE65F468185A0010F8B5C04610B5064C53
:1002C0002378002B07D1054B002B02D0044800E017
:1002D00000BF0123237010BDE805002000000000CE
:1002E00018490010044B10B5002B03D003490448F3
:1002F00000E000BF10BDC04600000000EC0500207B
:100300001849001070B5D024802504F0B1FA1920E6
:1003100000F014F82406AD04074E6562300004F0C6
:100320009BFAFA206561800000F0BCFEFA20A5610E
:10033000800000F0B7FEF1E7184900100123D02239
:100340008340120693629361094A830094464022D7
:1003500063441968C0004A40C02111408022520104
:1003600013431960034B9C46052360444360704768
:1003700004C0014000400140024B18688007C00FD4
:100380007047C04600C0064070B5EFF3108C72B6DF
:100390000D4D2B68002BFCD0BFF35F8F0724CB08DB
:1003A000C618C05C01230C40A3401C00044003425B
:1003B00007D103433370BFF35F8F2C608CF3108839
:1003C00070BD100001F084FE2C0100D00021044B10
:1003D000044ABFF35F8F02C39342FAD17047C0460D
:1003E000000100D0800100D0044A1078431CDBB229
:1003F000172B00D9102313707047C046200200202D
:10040000B12110B5024B034A034801F0BBFDC046C1
:100410001C490010BC4A001034490010A32110B53B
:10042000024B034A034801F0ADFDC0467849001075
:10043000B04A00103449001001238340002904D041
:10044000034A1360034A13607047034A1360FBE7D3
:1004500080E200E000E100E080E100E0024B1030CB
:100460009B688000C058704700ED00E010B5EFF3C6
:10047000108C72B6114A1368002BFCD0BFF35F8F4B
:100480000F4B10309B6880001B580E4A934201D0DE
:1004900099420CD10A4B9B681950BFF35F8FBFF391
:1004A0005F8F0022054B1A608CF3108810BD8621E7
:1004B000054B064A064801F065FDC046240100D000
:1004C00000ED00E0CD010010A8490010CC4A00105A
:1004D00034490010F0B5DE4657464E464546E0B575
:1004E00083B0EFF3108C72B66A4A1368002BFCD00D
:1004F000BFF35F8F684B694F9A68030010339E000B
:100500009459BC4231D08C422ED0654D621B2F2AAB
:100510002BD8012282401000624A126802400092E9
:10052000614A1060BFF35F8FEFF305829046002AA7
:1005300000D06DE0012322009A439368994208D1CC
:1005400092E07B00DB199B00EB189F688F421FD065
:100550001A000627D757002FF3DA6A21534B544A63
:100560005448FF3101F00EFD3C004B4B9B689C5101
:10057000BFF35F8FBFF35F8F0022464B1A608CF38F
:10058000108803B0F0BCBB46B246A946A046F0BDF9
:10059000062159568A46002944DB524651008846B6
:1005A000424492000191A9188F689F60CF79DF7152
:1005B0000627CF579F71002F48DB89880432934666
:1005C0001F1DCA0A1C2A5DD14A05121504325A445D
:1005D000AA18D21B384F111FB846384F4244BA42AE
:1005E0004ED80A05E021520D09020A439A80019B68
:1005F00053449B00ED18324B1A78AA7152461A7078
:10060000009B002B1FD02F4B1860264B1860ACE7C7
:10061000934200D18EE736212B4B254A2548FF31E6
:1006200001F0B0FC4146002912D1FF3191712749F8
:10063000918023490A789A71254A5B1B5B415A4392
:10064000120D0A70DCE7184B18608EE7214ACDE7DF
:10065000214AD21A083A5108120B15D11F4A9A8022
:100660001F4A0A43DA80CBE70623D3569A46130083
:100670005246002A91DA4246002AE9D13C00D8E7E6
:10068000FFF7CCFEFFF7BCFEAB21164B164A09481C
:1006900001F078FC240100D000ED00E0CD01001055
:1006A0002402002000E100E080E100E0244A001084
:1006B0009C4A001034490010FC070000FE0F0000A7
:1006C000AD06002080E200E0E049001001BDFFFF20
:1006D000AAAA000001BD00005E02002000F0FFFF9A
:1006E00000F8FFFF144A0010844A001070B501247E
:1006F000314B0443E21A2F2A00D955E0EFF305826B
:10070000002A4AD0EFF3108C72B62C4D29680029CC
:10071000FCD0BFF35F8F2A490500ED1A6D41694394
:10072000090D284D9200AE6849B2B658A64217D0BE
:1007300006229A568A4222D012229A568A4228D0FB
:100740001E229A568A4226D02A229A5603248A4288
:1007500016D0D1211C4B1D4A1D48490001F012FC46
:10076000AB681C4C9C501C4B1A7819708271BFF3FB
:100770005F8F0022114B1A608CF3108870BD00242B
:100780006200121992009B18FF229A71134A9A80F4
:10079000E9E70124F4E70224F2E79221104B0B4A27
:1007A0000B48FF3101F0EEFBC7210E4B074A08480A
:1007B000490001F0E7FBC04624020020240100D0DC
:1007C000AAAA000000ED00E0604A0010684A00108C
:1007D00034490010CD010010AD06002001BDFFFF1F
:1007E000544A00102C4A0010054B064A1360064A72
:1007F000136053609360D3601361536193617047DA
:100800008080808000E400E004E400E0024B9C462D
:1008100061448900016070474000003410B5040055
:10082000FFF7E2FD01002000FFF7F0FFFF23237137
:10083000BFF35F8F10BDC04610B50400FFF7D4FDB5
:1008400001002000FFF7E2FFFF23A380BFF35F8FCB
:1008500010BDC0460A4B1968EFF3108072B60A68E3
:10086000002AFCD0BFF35F8F1B68BFF35F8F0022AD
:100870001A6080F3108840BF002000217047C046F6
:10088000980600203C2110B5024B034A034801F0B2
:1008900079FBC046A04B0010A44E0010C44B0010C2
:1008A00070B5002920D003681C7BA1421CD8836846
:1008B0000E4884466144090159180D684968002AA8
:1008C00012D0A24210D8624412019A185368012033
:1008D0008B4201D9C0B270BD8B4201D00020F9E734
:1008E0001368AB42F6D8F9E7FFF7CCFFFFFFFF0F25
:1008F0003F2110B5024B034A034801F043FBC046B9
:10090000044C0010704E0010204C0010682110B5EF
:10091000024B034A034801F035FBC0466C4C001003
:10092000004F0010884C001070B5002919D0057BCD
:10093000A94216D84B0004685B18033BE318002A51
:1009400017D091420FD0AA420BD85000801803381C
:10095000201881701978002901D11A7070BD41707A
:10096000FBE7FFF7D3FF7121054B064A064801F06C
:1009700009FB7021054B034A034801F003FBC04605
:10098000E44C0010EC4E0010884C0010D84C0010C5
:10099000412110B5024B034A034801F0F3FAC04667
:1009A000A04B0010C84E0010C44B00105E2110B5C3
:1009B000024B034A034801F0E5FAC046FC4C001024
:1009C000B04E0010C44B0010F0B54F464646D64618
:1009D000C0B598460AAB1C780BAB1B780600170015
:1009E00099460568002C38D06B7BA34260D02B7BE6
:1009F000A34268D32B6861009C46091903396144FE
:100A00008B78002B54D1B268304B94464246E318A1
:100A10001B0163445A60089A1F609A60099ADA6061
:100A200000238B704B700B706B7B9A46002B2FD082
:100A300022005146A8686B689847002823D02200FE
:100A400051462800FFF770FF53466B73A24520D034
:100A5000E0BCBA46B146A846F0BDAC7B002CF7D04E
:100A60002B7BA3422FD32B6861009C4609190339C5
:100A700061444B78AB73002B00D1EB7300238B7078
:100A80004B700B70BFE7524621002800FFF74CFF68
:100A90006C733A004346307D00F08EFC051E02D098
:100AA0004B46002B0AD00C9B002BD1D01D70CFE7FA
:100AB0006721074B074A084801F064FA21003068B3
:100AC00000F054FFEFE7FFF721FFC046FFFFFF0FE5
:100AD000204D00100C4F0010C44B00100023F0B547
:100AE000DE4657464E4645469B469A4B8200E0B549
:100AF000D65800239A468DB00B9000F0FDFB020003
:100B00000B1E00DAF0E07068EFF3108772B6016830
:100B10000029FCD0BFF35F8F35686C7B002C00D1BF
:100B200073E0297BA14200D2EAE0B0688A4980469E
:100B3000611809018844414608684968801A99414A
:100B4000002900DC6AE043460B981A685B6800F0F5
:100B500033FC0023002208920993002300259846C5
:100B60007368BFF35F8F52461A6087F31088002DB9
:100B700008D10028C1D10DB0F0BCBB46B246A94691
:100B8000A046F0BD5B461F02274341463800A847F8
:100B9000069007917268EFF3108972B61368002B04
:100BA000FCD0BFF35F8F079B002B00DA85E0069A2D
:100BB000079B1100194355D03369002B52D0BB421B
:100BC00000D0B5E000F098FB02000B1E00DA8BE0CD
:100BD000069807998018594102000B1E00DA7AE046
:100BE0005146049101210391414630000294019144
:100BF0000095FFF7E9FE534633617368BFF35F8FDB
:100C000052461A6089F3108877E700230022089281
:100C100009930023002598460020A1E7002902D16E
:100C2000002800D08FE70021280000F0D5FDA04269
:100C300072D143461A685B680892099343469D68DF
:100C4000DB689846002D61D033681B7BA34269D3D3
:100C5000F36800201B19013B1B789B461B022343B2
:100C600033617DE73368002C0DD05A7BA2420AD055
:100C70001D7BAC423ED81868620012198218033AF4
:100C80009278002A05D0F621344B354A354801F0D8
:100C900079F9D97B002922D0A9422BD84A005218D1
:100CA0008218033A54709A7B002A4DD0DC73F268A4
:100CB000013C135D013313559DE73369002BD1D0FF
:100CC000BB423BD1089A099B06980799121A8B419F
:100CD000002B00DB84E70122234B524280E79A7B02
:100CE000002AE3D19C73E1E73F21204B204A2148B1
:100CF00001F048F96821204B204A1A4801F042F9D6
:100D00003C211F4B1F4A204801F03CF992211F4B08
:100D10001F4A1D4801F036F98E211E4B1C4A1A4805
:100D200001F030F94121164B1B4A174801F02AF90E
:100D3000A4211A4B164A144801F024F9A121174B9B
:100D4000134A114801F01EF9FB21154B044A0548CE
:100D500001F018F984060020FFFFFF0FA84D0010D6
:100D6000DC4E0010884C0010FFFFFF7F044C001089
:100D7000704E0010204C00106C4C0010004F001002
:100D8000A04B0010A44E0010C44B0010604D00108A
:100D9000884E0010484D0010C84E00106C4D0010D9
:100DA000CC4D001010B5144C6368002B04D00A2100
:100DB0001248FFF72BFD10BD2300114A10212068B7
:100DC00000F0D2FB032000F08BFA032000F06CFB54
:100DD00003200C4900F0AAFAFFF706FB0A4B9C46D9
:100DE00003232375D0231B061B6860446375074BE0
:100DF00080006060DC60DAE76C020020980600206A
:100E0000A1080010DD0A0010400000348406002014
:100E1000F0B557464E46DE464546E0B585B00193EF
:100E2000002306009A4600270F990092894610A9D0
:100E3000097803917268EFF3108B72B61368002B78
:100E4000FCD0BFF35F8F3568AC7B002C00D18CE009
:100E50002B7BA34200D295E02A68630094461B19BD
:100E6000033B63445A78AA73002A00D1EA73B1683D
:100E70004A4A8C4600980199A218120162441060F7
:100E800051600E9991604946D1609F705F701F70EC
:100E90006B7B9846002B0BD022004146A8686B68FC
:100EA0009847002846D1424621002800FFF73CFD24
:100EB0006C73307D009A019B00F07EFA8246002818
:100EC00003D02100306800F051FD33681B7BA34242
:100ED00052D3F3681B19013B18787368BFF35F8F17
:100EE0001F608BF31088002C43D05346002B08D191
:100EF0000002204305B0F0BCBB46B246A946A0465E
:100F0000F0BD039B002B32D00E9B49460020984732
:100F1000030004000D000B4329D0002914DA009AC5
:100F2000019B121BAB4100920193002B17DB039B2B
:100F30009A467FE7220041462800FFF7F5FC43462A
:100F40006B734445C1D1B4E700F0D6F902000B1E23
:100F50001EDBA4185D4100940195002DE7DA012302
:100F60000F4C5B4200930194E1E70020B5E70020BD
:100F7000C0E701204042BDE741210A4B0A4A0B4825
:100F800001F000F868210A4B0A4A0B4800F0FAFF0A
:100F90003F210A4B0A4A0B4800F0F4FFFFFFFF0F06
:100FA000FFFFFF7FA04B0010C84E0010C44B001085
:100FB0006C4C0010004F0010884C0010044C0010C6
:100FC000704E0010204C0010F0B5EFF30583C646BC
:100FD00000B504000D0084B0002B54D106267642E3
:100FE000F71736196F418F4215D90026002700F0F8
:100FF00083F902000B1E14DB30003900801A99417E
:10100000002912DC0FD02000290000F07FF904B085
:1010100080BCB846F0BD8F4201D18642E5D8002F92
:10102000E5DAFFF765FC0028EDD019484368002B8E
:101030002CD0002302930193164B320000933B0007
:10104000FFF7E6FE0028DEDB00239846BC46124A86
:10105000124F7B6A9C4504D8B96AB142D3D29C45F1
:10106000D1D11168EFF3108072B60B68002BFCD061
:10107000BFF35F8F1368BFF35F8F4146196080F342
:10108000108820BFE5E7064801F022F8FFF78EFC44
:101090006C02002055080010980600200040054012
:1010A000084E0010FA2270B500239200002103F0D0
:1010B0005FF904000D0000F01FF902000B1E0BDBAE
:1010C0002000290080185941002902DA0120034933
:1010D0004042FFF779FF70BDFFF70AFCFFFFFF7F7B
:1010E000F0B5EFF305834646D6464F46C0B502003D
:1010F0000C0006000D0084B0002B12D0424A0020E4
:10110000536A9D4207D8926A0130B24203D2E01A74
:10111000421E9041C0B204B0E0BCBA46B146A846F7
:10112000F0BD3A4F7968002961D002930193384BA2
:10113000380000932300FFF76BFE0028DEDD20BFA0
:101140007B68002B53D0EFF3108872B61A68002A20
:10115000FCD0BFF35F8F3B68C1B29C461B7B9946B6
:1011600063465B7B8B4236D0002942D0494540D84C
:10117000FF2303405A009246624612689A44914601
:1011800052464A44033A9278002A17D03A6990426C
:1011900033D0000AC2B2F86881464B44013B1B7849
:1011A00093420ED1604600F0E1FB002809D199215D
:1011B000184B194A1948490000F0E4FE3B6998426F
:1011C00007D07B68BFF35F8F00221A6088F3108816
:1011D00094E73A61F5E73B6998420ED0020AD2B231
:1011E000002908D0494506D8FF230340D3E7FFF77D
:1011F000DDFBFFF78BFBFFF7CBFB2C21084B064AEF
:101200000648FF3100F0BEFE004005406C020020A1
:1012100055080010044E0010584E0010C44B00102A
:10122000E04D0010F0B5EFF30582D6464F46464636
:101230001000C0B51038EFF3108872B6214C236847
:10124000002BFCD0BFF35F8F0123190081401E4D9E
:101250001F006963AA461D4D29601D4D2E78AC46BE
:101260003500C5402F402B4209D1BFF35F8F276067
:1012700088F31088E0BCBA46B146A846F0BD534694
:10128000144D5F6A83005D59AF420ED3124A8E43FC
:101290009B5862461670BFF35F8F0022226088F36E
:1012A0001088002BE6D09847E4E70C4B92009C4650
:1012B000624413681360BFF35F8F0023236088F3D9
:1012C0001088D7E7280100D0004005403C70054059
:1012D000AE0600209C06002004060020D03F0540FA
:1012E00010B50100024A0348FFF74EF810BDC04692
:1012F000244F0010AC060020034B596A0A00986A7C
:10130000596A8A42FAD1704700400540064A536A3A
:101310009942FCD807D1044B02E05A6A914202D1AB
:101320009A6A8242F9D370470040054070B50400C4
:101330000D00EFF3108672B61A4A1368002BFCD02A
:10134000BFF35F8F002D1BD02000FFF787F81649F1
:1013500081420AD02000FFF789F801212000FFF721
:101360006BF80123A340114A1360114BA400E55010
:10137000BFF35F8F00220B4B1A6086F3108870BD9D
:101380000B4BA200D5500122A2400A4920000B7845
:1013900093430B700449FFF79DF800212000FFF7ED
:1013A0004BF8E5E7280100D0251200103860054011
:1013B00004060020AE060020F0B5D6464F4646464D
:1013C000C0B5314C616A0D00A66A616AA942FAD1C2
:1013D00094461D008B4208D805D00120E0BCBA46D7
:1013E000B146A846F0BDB242F7D9EFF3108972B604
:1013F000264C21680029FCD0BFF35F8F0124244FC5
:10140000844039780E0026438846F1B239708A4606
:10141000061D1D49B6004C6372501E4E820093514A
:101420000B6A23420BD10B6C0020234225D0BFF363
:101430005F8F0022154B1A6089F31088CEE74B6A44
:101440001A008E6A4B6A9342FAD19D4211D801D19B
:10145000B4450ED8C2450ED00B4B0F4A1C625C63DC
:101460001F2318401E3B83401360434601203B70FE
:10147000DDE70020DBE70120D9E7C521074B084A5B
:10148000084800F07FFDC04600400540280100D01C
:10149000AE0600209C06002080E200E0484F0010CD
:1014A000B44F00106C4F0010EFF3108C72B60A4965
:1014B0000B68002BFCD0BFF35F8F01238340074AEA
:1014C0000748136202789A430270BFF35F8F0023CC
:1014D0000B608CF310887047280100D00040054055
:1014E000AE060020682110B5024B034A034800F005
:1014F00049FDC0466C4C0010C4500010884C0010D0
:1015000070B5002919D0057BA94216D84B00046894
:101510005B18033BE318002A17D091420FD0AA4270
:101520000BD85000801803382018817019780029D2
:1015300001D11A7070BD4170FBE7FFF7D3FF712135
:10154000054B064A064800F01DFD7021054B034A75
:10155000034800F017FDC046E44C0010B0500010E6
:10156000884C0010D84C001070B583600023CCB2BA
:10157000437301330D00047342608373C473012C01
:1015800010D90068421C0133DBB2137003329C4255
:10159000F9D1FF2129404B00591800234018033886
:1015A000437070BD002C01D00068F2E7FFF79AFF8E
:1015B000F8B505000C1E32D0017B8C423FD8630089
:1015C00002681B19033BD3185E78002E27D08E4289
:1015D00035D8710089190339521800215778517094
:1015E00059703200210080686B689847002818D035
:1015F000320021002800FFF783FF39002800FFF7A1
:10160000D7FF061E0BD032002100A8686B689847F0
:1016100000280DD0320021002800FFF771FF2000C4
:10162000F8BD220031002800FFF76AFF3400E4E72C
:10163000220031002800FFF763FF3400EFE7FFF7D7
:1016400051FFC046F0B54F46D646464604000D0051
:101650009146C0B5002900D199E0007B814200D9B4
:1016600093E04B005B182268033BD11898464B78F7
:10167000002B00D097E08B789C46002B00D08CE0AC
:101680000E78002E69D0864200D97EE073009B1947
:10169000033BD3185F78002F4ED0B84200D274E0DD
:1016A0007900C9190339521851788A466146517038
:1016B00059703A003100A06863689847002857D0F5
:1016C0003A0031002000FFF71BFF37005146200091
:1016D000FFF76EFF061E0BD032003900A06863686A
:1016E000984700284AD0320039002000FFF708FF51
:1016F0004B463E00207B002B24D0E37B002B32D0D6
:10170000834242D85A00D318226894466344033B6C
:101710005D70A37B002B4CD0E573002E12D1854267
:1017200033D8226813000022434430005A70E0BCD2
:10173000BA46B146A846F0BD4A46002ADDD100228D
:101740009A70ECE7B04220D32268730094460022DE
:101750009B19033B63449A70E1E74B46002BE1D0B1
:10176000E37B002BCCD1A37B002BD5D1A573D3E792
:10177000320039002000FFF7C3FEA7E73A0031002E
:101780002000FFF7BDFE3700B2E7FFF7ABFE3821C0
:101790000B4B0C4A0C4800F0F5FB3B210B4B094A64
:1017A000094800F0EFFB3A21094B064A064800F0D1
:1017B000E9FB4221074B034A034800F0E3FBC04624
:1017C000D04F00109C500010D84F00104050001017
:1017D00018500010CC4D0010F0B54F464646D64686
:1017E000C0B5467B04008946002E00D199E0007BFD
:1017F000864200D993E0730021689B19033BCA1805
:1018000098465378002B00D097E093789C46002BA5
:1018100000D08CE01578002D69D0A84200D27EE07F
:101820006B005B19033BCB185F78002F4ED0B8429A
:1018300000D274E07A00D219033A89184A789246A5
:1018400062464A705A7029003A00A0686368984757
:10185000002857D03A0029002000FFF751FE2F0042
:1018600051462000FFF7A4FE051E0BD02A003900C8
:10187000A0686368984700284AD02A0039002000F1
:10188000FFF73EFE4B463D00207B002B24D0E37B40
:10189000002B32D0834242D85A00D3182268944693
:1018A0006344033B5E70A37B002B4CD0E673002D9A
:1018B00012D1864233D821680022414430004A7058
:1018C0006573E0BCBA46B146A846F0BD4A46002A58
:1018D000DDD100229A70ECE7A84220D322686B0089
:1018E000944600225B19033B63449A70E1E74B4640
:1018F000002BE1D0E37B002BCCD1A37B002BD5D1F7
:10190000A673D3E72A0039002000FFF7F9FDA7E707
:101910003A0029002000FFF7F3FD2F00B2E7FFF7A0
:10192000E1FD38210B4B0C4A0C4800F02BFB3B210E
:101930000B4B094A094800F025FB3A21094B064A9E
:10194000064800F01FFB4221074B034A034800F002
:1019500019FBC046D04F00109C500010D84F00100B
:101960004050001018500010CC4D0010F8B5050084
:10197000002946D0437B8B425ED0007B814200D958
:1019800070E04E002C687618033EA619B278002A43
:1019900037D0824266D853009B18033BE25CE718BD
:1019A0008A4232D0002A02D150E0002A54D082422A
:1019B0004CD853009B18033BE3185A788A42F4D161
:1019C00072785A7000230122B37073702800FFF7F9
:1019D00039FE6E7B0400864246D0002E0ED00028D1
:1019E00011D002003100A8686B68984700280FD01A
:1019F000220031002800FFF783FD340001206C73C2
:101A000000E00020F8BD3400F8E773783B70D9E7B8
:101A10002A7B944226D8630029681B19033BCB1804
:101A200096421FD872009219033A8A189470197856
:101A3000002908D11E70E1E701221900FFF702FE1C
:101A400068730120DEE751701E70D7E76821094BEB
:101A5000094A0A4800F096FA6B21094B094A0A48DC
:101A600000F090FAFFF73EFD7121084B054A064849
:101A700000F088FA6C4C0010C4500010884C001024
:101A8000604A001084500010D84F001064500010BD
:101A9000F0B54E464546DE465746E0B583B0019266
:101AA0000C9A05008946934200D27CE01A0E9346B8
:101AB0001E023000002359460C9A01F047FE3D4BB0
:101AC0006C009C466419A400644463680700834268
:101AD00034D32B1FDBB29846012B35D9C02380228B
:101AE0009B01234312011A60334BAD0059599A46AA
:101AF00000294FD1019A236852015340E0221A4035
:101B000080235B0123431A604246012A35D9802392
:101B100080229B01234312011A6030003A00002307
:101B20005946676001F012FE53465851012003B038
:101B3000F0BCBB46B246A946A046F0BD2B1FDBB2A7
:101B400098466060012BC9D84B46012BC6D1C023F3
:101B500003229B0123431A60023AA3681A42FCD075
:101B6000019A236852015A40E0231A4080235B0106
:101B700023431A60104AAD0092464A4621685140FC
:101B800003220A401A6001224B469A40A3681A4277
:101B9000FCD0BCE7586901F09BFD431C5800C018FD
:101BA0000338FDD2A6E73321044B054A054800F06F
:101BB000E9F9C0460080004014060020C051001022
:101BC000D45100101451001030B50C2083B000F037
:101BD000B7F9FEF7D1FB00280ED0834B834A1A6079
:101BE0005A609A60DA601A615A619A61DA611A621F
:101BF0007F4A5A6203B030BD7E4CA06700F0A8F95E
:101C000001227D4B1A60636C012BFCD103227B4BBC
:101C10001A60784A936B012BFCD101330121784A79
:101C200078480093043300F009F905230121764A2E
:101C30007648009300F002F9754B002200930221D0
:101C40000420FFF725FF734B5A68FF2A02D8802231
:101C500052005A600321684A6E4B116002399A683B
:101C60001142FCD0E0201A681040802252011A4331
:101C70001060186848400321014002201160654946
:101C80008A681042FCD08022920113438022120104
:101C90001A608022604B544C52004A6063615F4B73
:101CA0005968FF2900D85A6080225D4BE169120112
:101CB0005A4D1A60002907D0606901F009FD431CE4
:101CC0005800C0180338FDD2E02254490B681A406E
:101CD00080235B012B431A60802380229B012B43CE
:101CE00012011A608022414B52004A60E3614D4B61
:101CF0005968FF2900D85A6080224B4B216A120193
:101D0000484D1A60002907D0606901F0E1FC431CCE
:101D10005800C0180338FDD2E02242490B681A402F
:101D200080235B012B431A60802380229B012B437D
:101D300012011A60802380225B004B602B4BD20281
:101D400023623A4B5968914200D25A608022384B44
:101D5000616A1201354D1A60002907D0606901F0EF
:101D6000B7FC431C5800C0180338FDD2E0222F49AD
:101D70000B681A4080235B012B431A60802380226A
:101D80009B012B4312011A608023DB024B60184B2E
:101D90006362284B5A68FF2A02D8802252005A6098
:101DA0008022254BA1691201224D1A60002907D01B
:101DB000606901F08DFC431C5800C0180338FDD247
:101DC000E0221C490B681A4080235B012B431A60F8
:101DD000802380229B012B4312011A6080235B0029
:101DE0004B600D4BA36105E714060020006CDC027C
:101DF0001BB70000008000403CB0004030B0004005
:101E0000002F685900800240008C864700C00240C5
:101E1000001BB7003C8000404059730754800040CD
:101E200054B000406080004060B000406C800040D2
:101E30006CB000404880004048B00040F8B5170042
:101E4000040033480E001D0001F042FC314B01003C
:101E5000FA18314B9A4254D8380001F039FC02008C
:101E60009823103A5B009A4245D86B1E062B3CD84B
:101E7000069B013B062B38D8069B2D0419032368CB
:101E80002943002B20DB254B254DE21853425A41B4
:101E900080235B019C461203224B62441A60224B52
:101EA0001A601700AB689F43FBD1C022231D92012B
:101EB0001A4321232660A06013602368002BFCDAFC
:101EC0000823E1601360F8BD3F2322681340B3424A
:101ED000D9D1A3681B051B0D8342D4D1EE22E36840
:101EE000D20213408B42CED1EDE71C210F4B104A9A
:101EF000104800F047F819210F4B0D4A0D4800F02B
:101F000041F811210D4B0A4A0A4800F03BF8C0463F
:101F1000001BB70080E84BD380F8A9320040FDBF1A
:101F200000C0004000E0004000F00040A45200105B
:101F3000F05200104452001088520010E45100107A
:101F40008023024A9B000343D36270470080054010
:101F5000AA23064A1B0113602F230549D360054BB2
:101F600019605368002BFCDA7047C04600400240FD
:101F700000B0FA000060024000BEFDE710B5FFF7B8
:101F8000FBFFC04610B50C0082B01900002A0AD031
:101F9000064B0192009302002300054802F05CFC0E
:101FA0000120FFF7E9FF034B1A00F2E7FC52001093
:101FB0000C53001008530010334B344A70B51A60AC
:101FC000334A344B34491A6014008B689C43FBD16C
:101FD000324D334EB54208D2013E761BB60808CDCD
:101FE000984723000134B342F9D1FFF7EDFD2D4AA4
:101FF000284B1A60284A9368DB43DB01DD09002B7C
:10200000F9D14022284B294C294E9A675A671A6702
:10201000DA66B4420AD22368002B27D0012B2CD1D8
:1020200020000834FEF708FCB442F4D3214E224CC1
:10203000C0223000A16802F053FAEFF30583A660D6
:10204000002B18D1FEF7C2F9FEF7CEFBFEF7AAFE71
:102050001A4C1B4EB44208D2013E361BB60808CCBF
:1020600098472B0001359E42F9D170BD2000FEF744
:10207000D5FB0834CDE700BEE4E78721114B124AB7
:102080001248FFF77FFFC04600E00040BFCDFBFED7
:10209000FE7F3C0000F0004000C00040D002002065
:1020A000E0020020FFFFFF0100F00140C00200201D
:1020B000D00200200000002000ED00E0E00200203F
:1020C000E40200203C530010B85300105C53001091
:1020D0000FB400B5084883B002F02CFB049B002B22
:1020E00007D005A91800019102F042FB034802F055
:1020F00021FB0120FFF740FFA4530010B453001050
:102100007047C046F8B557464E464546DE46E0B5F0
:1021100099460A9B07009A460D9B884693461500F0
:102120000B9E9B0710D10C9B9E420DD29D1B140051
:102130000E005D4422004B46013431002020B84798
:10214000A542F7D1B0460B9E002E27D04446751904
:102150005346AA1B013E985D21004B46B847002E0E
:10216000F6D123002C0098460D9B9B070FD55B46AC
:10217000E51A0C9BAB420AD94646984622004B46CC
:10218000310020200135B8470134A845F6D8200099
:10219000F0BCBB46B246A946A046F8BD2C00E3E71A
:1021A000F0B54F464646D646C0B584B098460EAB0D
:1021B0001B78129F994694460D9C109B119EBA075E
:1021C00025D4002E4BD19C4200D3BFE001223A40DF
:1021D00092461F2C00D9B8E00C9A551E302201E01F
:1021E000202C03D001342A55A342F9D85246002AA4
:1021F0000DD0A6420BD9202C44D00C9A551E30226B
:1022000001E0202C3ED001342A55B442F9D1FA061F
:102210004DD57A053FD4002C39D10F9B102B00D11E
:1022200079E00F9B022B00D18AE030230C9A012425
:1022300013704B46002B3FD02D230C9A13550134BD
:102240000C9B624600930397434602960194FFF766
:1022500059FF04B0E0BCBA46B146A846F0BD012221
:1022600015003D40AA463A422FD04A46002A02D1E4
:102270000C323A4200D0013E9C42BAD21F2CABD95C
:10228000202E27D92024FA06DAD57A0503D4A342D2
:102290002DD0A6422BD00F9B102B32D0022B20D05A
:1022A000202CCDD030220C9B1B191A700134202C0D
:1022B000C6D04B46002BBFD17B070DD43B07BFD503
:1022C00020230C9A13550134BAE79C429FD21F2C4D
:1022D00000D881E720249AE72B230C9A1355013468
:1022E000AEE7202CACD00C9B1B1901343AE0631EE6
:1022F000012C92D00F9A102A2AD0022A2FD01C002B
:10230000D0E7BB060ED4202C9AD00C9B1A190134AE
:1023100078231370C4E7BB060DD478230C9A0124EC
:102320001370BFE7202C00D18AE758220C9B1B19A1
:102330001A700134B4E758230C9A01241370B1E7E2
:102340000C9A603301241370ACE7202400265EE76A
:10235000023CBA06E9D40C9A12191C00D8E70C9A70
:102360009246534462221A709AE7C0460B0010B599
:10237000002802D049681B68984710BDF0B5DE46BA
:1023800057464E464546E0B59FB09846289B0D926D
:102390009B46299B01221C0081468A460A93584687
:1023A0002100D34B524201F05FFC002800D08DE1A8
:1023B000012258462100CF4B524201F03FFC002839
:1023C00000D083E15B460B930A9B2C9A5B005B0871
:1023D00009938023DB001A400E922C9A1A4201D1F5
:1023E00006232A935A46099B134300D157E1C24B57
:1023F000099D9C466800400D604401F03FFCBF4AC7
:10240000BF4B01F0D0FB2B03BE4A1B0B1A43060047
:102410000F00BD4B11005846002201F094FBBB4A4F
:10242000BB4B01F0C0FBBB4ABB4B01F095FB02006C
:102430000B003000390001F08FFB01F037FC0C90ED
:1024400001F01CFCB54AB64B04000D0001F0ABFBDB
:102450000022B44B01F080FB01F028FCB24A0600D8
:10246000B24B2000290001F09EFB040030000D005B
:102470000F9601F003FCAE4AAE4B01F094FB020054
:102480000B0020002900129213931094119501F073
:102490005AFB02000B0004000D0001F084FB220037
:1024A00006000F002B002000290001F055FBA24A76
:1024B00014901591A14B3000390001F074FB0022FB
:1024C0009F4B01F049FB02000B003000390001F086
:1024D0004CFB00229B4B01F03FFB02000B00300045
:1024E000390001F042FB109A119B0D00802104007D
:1024F000C905002001F027FB129A139B01F02CFB69
:1025000002000B002000290001F026FB02000B0056
:102510001498159901F029FB00227A4B01F01CFB5D
:10252000894B0F9C9C4664440022230501F03BFB31
:1025300006000D0002000B000B98099901F07EFBCC
:1025400000280AD00C9B3000013B29000C937F4AE5
:102550007F4B01F028FB06000D00C6270C993300C5
:1025600063318F42BF412C997F420437090500D562
:10257000F2E02B9B0024BB4200D9DC1B02232C9AE7
:102580001A400E922C9A134203D07B427B415B424D
:102590001C400C9B002B07D00B98099932002B0094
:1025A00001F0E3FA0B9009910022002358460A99A2
:1025B00001F044FB002805D08020000684460999DC
:1025C000614409912C9A634B0394134004932A9B12
:1025D0000B9A0293099B5146009201934846434649
:1025E0000D9A00F0E5F80400002F50D02C9B22003B
:1025F00098061F23C0179843631C9B4651464346C9
:102600006530C8470C9B0025DA179C18DB0F544037
:102610000993013F01E0202D13D00EAA94461F23F9
:10262000200063440A2101355E1901F051F8303170
:10263000317020000A2101F04BF826000400092E19
:10264000E9D805230693002304930A330393099BD7
:102650005A46029316AB00935146434648460597A7
:102660000195FFF79DFD0E9B0400002B0FD00D9BE5
:10267000C51A2B9BAB420AD94F461E002200434687
:10268000514620200135B8470134AE42F6D820002B
:102690001FB0F0BCBB46B246A946A046F0BD2C9B7D
:1026A000002600251B0575D500230C932A9A0C9B48
:1026B0009A4273DDD01A431E2A9380232C9ADB00A2
:1026C0001A43002300272C920C9352E75A462C9B66
:1026D000514604932B9B484603932A9B02930A9BE3
:1026E0000092019343460D9A00F062F80400CEE791
:1026F000FFFFEF7FFFFFEFFF01FCFFFFFB799F5024
:102700001344D33F0000F03F0000F83F61436F6384
:10271000A787D23FB3C8608B288AC63F71A37909C7
:102720004F930A400000E03F1655B5BBB16B024025
:10273000EF39FAFE422EE63F922449922449B23FF5
:102740000000244000001840FF0300009A99999966
:102750009999B93FFFF7FFFF2B43A7D0099C114A76
:102760002100114B0B9801F077FA002807D00022C6
:1027700021000E4B0B9801F061FA002896D12A9B9C
:10278000002B00D1F5E60E9B5A1E93412A9AD31ACC
:102790002A93EEE6002304270C93EAE600232A930B
:1027A0008BE7C0462D431CEBE2361A3F80842E4156
:1027B000F0B557464E46DE464546E0B597B09946D9
:1027C000209B0C929A460122219F834607915046F6
:1027D0003900C04B5242229E01F030FA002800D04E
:1027E000C9E0012250463900BB4B524201F03CFA8D
:1027F000002800D0B3E0002250463900B74B01F06A
:1028000033FA002800D094E0002250463900B44B3F
:1028100001F014FA002800D08BE00022002350467B
:10282000390001F00BFA002800D0B6E000230D9328
:10283000249B5B0500D4062608AB9C461722002487
:102840003023624404E001341355013E202C01D0B2
:10285000092EF8D83900504601F028FAA14BF200B1
:102860009B181A685B6805000892099301F006FA44
:1028700002000B005046390001F065F9089A099BE7
:1028800001F091F90A900B9101F034FA804601F0C1
:10289000F1F902000B000A980B9901F054F900229B
:1028A000914B0A900B9101F0DFF9002800D1B1E0C3
:1028B00001239C46E044404601F0DCF902000B0095
:1028C0000898099901F0C0F9002802D00023984621
:1028D0000135002E68D008AB17279C460895674441
:1028E0004546B04614E001235B4243440A212800D8
:1028F0009A4600F0EDFE013430313E193170280067
:102900000A2100F0E5FE092D00D8C0E0D046050000
:10291000202CE8D10EAF0323249A1340012B00D1C1
:1029200088E02023249A01930392239A009702922D
:1029300029E0249B52460493239B584603933B0073
:1029400007990092019302964B460C9AFFF716FDE9
:1029500017B0F0BCBB46B246A946A046F0BD249BCA
:102960005B0717D40322614B2499019203912399A9
:102970000093029107E0249B0393239B029304237B
:1029800001935B4B00934B4658460C9A0799FFF70F
:10299000B9FBDDE70422574BE6E780231B069C4684
:1029A000012367440D9343E7280001F067F9020013
:1029B0000B005046390001F0C6F800224A4B01F0E6
:1029C00035F90EAF002802D0EB0700D580E0202CAF
:1029D000A1D008AA94461723280063440A21013491
:1029E0001E1900F04DFE3031280031700A2100F030
:1029F00047FE051EEBD10323249A1340012B1AD066
:102A0000202C00D18DE70D9B002B34D02D22631C90
:102A10003A5587E700220A980B99334B01F00EF9DB
:102A2000002800D055E74346002B4DD101239C469A
:102A3000E0444EE72024239B002BE1D00D9B002B8C
:102A400003D1249A0C33134202D0239B013B2393DE
:102A5000239BA342D4D908AB9C461722302362445F
:102A6000202C00D15DE72399013413558C42C7D047
:102A7000202CF8D155E7249B5B0721D4249A23000E
:102A8000120700D44EE7202201333A554AE7464662
:102A9000089D202C00D13DE7534622003021002B19
:102AA00009D00132B954202A00D133E7D3431B198E
:102AB0009B19002BF5D12E230EAF541CBB5486E777
:102AC0002B22631C3A552DE7DB0700D401E7ADE765
:102AD00001357CE7FFFFEFFFFFFFEF7F65CDCD41C5
:102AE00065CDCDC1C05500100000E03FD0530010AF
:102AF000D4530010C8530010F0B5DE464E4657467A
:102B00004546E0B59FB01C00289B8B469146089037
:102B10000993002900D114E2002320789A46002866
:102B200000D116E226001D005C460AE02A006F1C58
:102B30004B46089D2100A8473D000136307800280B
:102B400070D02528F2D110239B46083B9A46043BBF
:102B50009846023B00219C46721C10781600030028
:102B6000203BDBB2102B03D8BB4F9B00FB589F468A
:102B70000300303B092B32D900230A932A2868D05E
:102B8000002398462E283ED00300683BDBB2122B70
:102B90001CD8B24A9B00D3589F46012301321943E7
:102BA000DBE7634601321943D7E743460132194355
:102BB000D3E75B4601321943CFE75346013219434D
:102BC000CBE780235B007078194301360300253B77
:102BD000DBB2532BAAD8A24A9B00D3589F460027AA
:102BE0000300B800C01901364000C01833783038EF
:102BF0001A00303A0700092AF3D90A901800002376
:102C000098462E28C0D180237078DB00194303003A
:102C1000303B721C092B00D89DE12A2800D1AEE17F
:102C20001600B1E7A346AA462C00D14503D80123DC
:102C30005B424B449A464B46524659460020089DFB
:102C4000A84720001FB0F0BCBB46B246A946A0462C
:102C5000F0BD099B40CB0A96002E03DB5078099308
:102C6000561C8DE72838014370420A90099350782A
:102C7000561C85E7782800D1DBE1582800D148E2CE
:102C80006F2800D14AE3622801D100F02BFC102309
:102C90000A009A430B92692801D000F0A4FC0A2391
:102CA0000C934B0500D5CCE10B9A802311009B00BF
:102CB00019408B461A4200D09DE2802311005B0030
:102CC00019408A461A4200D0B1E313005B0600D5D2
:102CD000E9E2130009991B0601D400F071FC08C950
:102CE0001BB2D8171A18424092B209919346DA0FD4
:102CF0001292002B09D1802310220B99DB000B408C
:102D000091430B91002B00D0DFE20B9A61239206D6
:102D100000D541230EA91F228C46DBB262440A3B38
:102D20005F461395A34655460C9CB2460D9316007C
:102D30000AE03033DBB201357355A74200D2E8E236
:102D4000202D00D1E5E207002100380000F0C0FC92
:102D5000CBB20929EDD90D9A94466344DBB2EAE778
:102D600080239B007078194301362FE7707868281C
:102D700000D1C9E180230136194327E770786C2818
:102D800000D1BBE180235B00194301361EE74628D2
:102D900000D197E10722099B0491073393430A9AD4
:102DA00019000392424602920CC9089800920193BE
:102DB00009912A004B462100FFF7FAFC0136050075
:102DC000BCE62A006F1C4B46089D21002520A84721
:102DD00001363D00B2E68B0700D4A9E1099B2A0029
:102DE0009A466B1C9846534601CB21009A46089F91
:102DF0004B46C0B2B8470A9B9C466544012B00D89D
:102E000081E2089B4746B04626004C4699463A0068
:102E10002300013731002020C847AF42F7D1A14637
:102E20005346340046460993013687E6099B04CB96
:102E30009B4643460992002B00D1CDE013789C4677
:102E4000002B00D1C3E34346013B099A0133D0185C
:102E50000A9F130008E0C046DC5300102054001005
:102E60006C540010834203D05A780133002AF9D100
:102E7000099A0A979B1A0B9380230A00DB001A40D9
:102E80000C92194204D00B9B434501D943460B9346
:102E900002231A000A400D920B4200D187E16046DE
:102EA000002800D168E10C9B002B00D10DE1A84463
:102EB000C246099B57465B1B9846089BB2462A00B0
:102EC00026004C46994609E023003100551CC847AE
:102ED0004346585D002800D126E12A009742F3D1ED
:102EE000A1463D00340056460D9B002B00D043E127
:102EF0005B460136099321E6099B1A0008CA9246EF
:102F0000002B48D0212211438B460EA884461F2156
:102F10006144099500220F27A4460D0002E0202AF3
:102F20000CD00B003C001C4020003730092C00D88E
:102F300007380132A85419090F2BF0D86446099DAF
:102F400032E0DC4B2078089300239A46002800D01A
:102F5000E8E5002469E6434606000A9F9800C01889
:102F60000132400080191678030030003038303BC1
:102F70000928F3D93000984616000A9704E6099B01
:102F8000023604CB9046D2434046D21710408046CA
:102F900009933078F8E5102208009043113210436D
:102FA000834600224905B0D55B4606930823059366
:102FB00043460493102303930023029316AB01921C
:102FC00000932A004B4621000898FFF7E9F8534682
:102FD000050001360993B1E513789C46002B00D11A
:102FE000F6E202235B4230E7202302009A43472A9D
:102FF00004D180231B01194302239843452801D1A2
:10300000202319430722099B0491073393430A9A0B
:1030100019000392424602920CC90898009201934B
:1030200009912A004B462100FFF7A8F90136050057
:1030300084E510230C930C230A009A430B924B0552
:1030400003D501230B9A9A430B92692800D12BE6F2
:10305000642800D128E60B9A802311009B001940B8
:103060008B461A4200D065E1802311005B001940B5
:103070008A461A4200D038E213005B0600D53BE1D5
:1030800013001B0600D4A5E2099B04CB1204120C0A
:10309000934609935B46002B00D099E10B9A1033BD
:1030A000110099430B91520500D491E100239A46F7
:1030B0000B9B06930A9B0593434604930C9B039337
:1030C00000230BE12023194364E6099B0A9A5B1B4A
:1030D00098464B4691461F00B2462600089C2A009F
:1030E0003B003100A04743460135585D0028F6D12A
:1030F0004A463400B94656460A92F5E6C0239B007C
:10310000B0781943023661E5C023B078194302361E
:103110005CE50C230A009A4314331A43103B0B92CC
:103120000C934B058DD496E7A14634005646DBE65A
:103130000A9A012A00D852E26B1E9F18089BB046DB
:1031400026004C4699462A002300013531002020F4
:10315000C847BD42F7D1A14634004646099B3A0014
:1031600001CB210098467D1C4B46089FC0B2B84752
:10317000434601360993E1E40B9B0A9AA8469A421A
:1031800000D8B5E694466544ED1A089B4746B0461C
:1031900026004C4699463A00230001373100202092
:1031A000C847AF42F7D1A14634004646A0E60B9A85
:1031B0000A99531C914200D813E24B199B1A1F0025
:1031C000089BB24626004C4699462A00230001354A
:1031D00031002020C847BD42F7D10A9BA1460133E8
:1031E0000B93099B34001B7856469C46604600288A
:1031F00000D058E67CE60722099B0733934301324F
:1032000094469C4462465F6809921A68FB171093C3
:10321000119310981199030053400E930B007B40BB
:103220000F9394460E9A0F9B121A8B410E920F9396
:10323000FB0F6246129300233A439B463CD00B9A05
:103240006123920600D541230022DBB20EA90A3B7E
:103250008C4692460D9343461F3262441395159651
:1032600055460E9E0F9FA24690460C9C14930CE070
:103270003032D2B2434601355A55BB4500D189E1BF
:10328000202D00D189E106000F002200002330002C
:10329000390000F05BFAD2B2092AE9D90D9B9C46AD
:1032A0006244D2B2E6E7FF23099904C913401A0029
:1032B00009911BE5012100100B9A1033110099436D
:1032C0000B915205BBD500239A460B9B06930A9B94
:1032D0000593434604930C9B0393129B029353461E
:1032E000019316AB2A00009321004B460898FEF785
:1032F00057FF0136050021E4FF22099B02CB114054
:103300008B460993C6E65346454609930136FFF7B7
:1033100015FC56465C46AA46139DD6E708230C9337
:103320000B910B99642800D085E60B9B5B0500D5BB
:1033300087E6B9E40722099B073393430132944699
:103340009C44624609921A685B6810009B46130011
:103350005A46134307D10B9A1033110099430B912E
:10336000520500D5A2E60B9A6123920600D54123AF
:103370000022DBB20EA90A3B8C4692460D934346CF
:103380001F3262445F461295A34655460400B2467A
:1033900090460C9E13930DE03032D2B24346013575
:1033A0005A550023BB4200D100E1202D00D100E19D
:1033B00004000F00320000232000390000F0C6F99D
:1033C000D2B2092AE8D90D9B9C466244D2B2E5E705
:1033D0000B9A6123920600D54123DBB20EA90A3B6A
:1033E0001F228C460D93230062445C461295170001
:1033F00055469B46B2460C9E08E03033DBB20135A1
:103400007B55B4420ED3202D0CD004003100200097
:1034100000F05EF9CBB20929EFD90D9A94466344C6
:10342000DBB2ECE756465C46AA46129D40E6099B95
:103430001A0008CAD91713925A184A409246DA0F4E
:103440001292002B08D1802310220B99DB000B4035
:1034500091430B91002B2BD10B9A6123920600D53F
:1034600041230EAA1F279446DBB20A3B0D95674401
:103470005D460993A3465446B2460C9E08E030339D
:10348000DBB201357B55B4420ED3202D0CD00400A5
:103490003100200000F01CF9CBB20929EFD9099ABC
:1034A00094466344DBB2ECE756465C46AB460D9D62
:1034B0000B9B2A0006930A9B210005934346049325
:1034C0000C9B08980393129B013602935B46019371
:1034D00016AB00934B46FEF763FE139B0500099362
:1034E000FFF72CFB02230C931AE7099B04CB9246AF
:1034F0001293002A08D1802310220B99DB000B4085
:1035000091430B91002B2BD10B9A6123920600D58E
:1035100041230EAA1F279446DBB20A3B0D95674450
:103520005D460993A3465446B2460C9E08E03033EC
:10353000DBB201357B55B4420ED3202D0CD00400F4
:103540003100200000F0C4F8CBB20929EFD9099A64
:1035500094466344DBB2ECE756465C46AB460D9DB1
:103560000B9B2A0006930A9B210005934346049374
:103570000C9B08980393002302935B46019316ABC0
:1035800000934B46FEF70CFE129B05000993013693
:10359000FFF7D4FAB44200D872E6149B54460E9654
:1035A0000F97AA469846159E139D8EE6A64200D810
:1035B000FBE6139B56469846AA465C46129D77E565
:1035C00008C9D8171A1842400991FFF78FFB00234A
:1035D0000B9351E4099B04CB934609935AE52F00C2
:1035E000BCE50B9302E6063B0C939AE600B585B06A
:1035F0000391012102900093034813004A4202A95B
:10360000FFF77AFA05B000BD6D23001001480421D0
:10361000014B1847A00200203D360010142310B5BE
:103620000100188804331B88984710BD162310B575
:103630000100188802331B88984710BDF8B547462B
:10364000CE4680B50F1E19D01423994604330400CA
:103650000025012698464B461888434621681B885A
:10366000984701C4431E9841013540420640AF428D
:10367000F1D13000C0BCB946B046F8BD0126F8E72C
:10368000124A936F9B0815D29066D166002905D027
:10369000FFE7FFE7FFE7516F106F704704B5802128
:1036A0000906C2175140002800D0C84301F024F990
:1036B000002104BDF0B5146E556E576F166FFFF7FD
:1036C000E3FF1466556657671667F0BD000000D02B
:1036D000114A936F9B0813D210665166002905D0DA
:1036E000FFE7FFE7FFE7516F106F704704B5002851
:1036F00001D00020C04301F0FFF8002104BDC04606
:10370000F0B5146E556E576F166FFFF7E5FF146630
:10371000556657671667F0BD000000D094464A4AC8
:10372000926F9208624601D228E0C046F0B5464E3C
:10373000346E756E776F366F00F020F89446424A0B
:1037400014665566576716676246F0BD94463E4A52
:10375000926F9208624601D254E0C046F0B53A4EEC
:10376000346E756E776F366F00F04CF89446364ABB
:1037700014665566576716676246F0BD002B24DB5A
:1037800011D000293EDA00B5C943404200D10131D1
:1037900000F038F8C943404200D10131DB435242C6
:1037A00000D1013300BD002AEBD1002801D100294E
:1037B00005D00020C90FC90701D1C043410800B599
:1037C00001F092F80022002300BD00B500290ADBB9
:1037D000DB43524200D1013300F014F8C9434042A8
:1037E00000D1013100BDC943404200D10131DB436A
:1037F000524200D1013300F005F8DB43524200D1C0
:10380000013300BD002923D1002B18D1002A0CD090
:10381000BC460D4F38667A6600210023FFE7FFE7BC
:10382000FFE77A6F386F67467047002801D0074876
:10383000010000B501F058F80022002300BD02008D
:103840000B00002000217047000000D0FFFFFFFFA9
:10385000002B00D0BFE0130C28D1002AE7D080B4A1
:10386000114F39667A66FFE7FFE730B4040C7B6FCF
:10387000396F1B0423433B667A66FFE7FFE7FFE7E8
:10388000C04684B27B6F3D6F1B0423433B667A6660
:10389000FFE7FFE7C04600232C042D0C7A6F386F3A
:1038A00000196941B0BC7047000000D0F0B59446E3
:1038B0000025140E01D112020835140F01D1120196
:1038C0000435940F01D192000235D40F01D152007A
:1038D0000135D40B0134254F7C66254C3C660E0C1B
:1038E00093B2FFE7FFE7FFE73C6F6643360C7703D1
:1038F000BE467343DF0B5B04C01AB941130C73431C
:10390000DB18C91ACE086643360CB64493B273432B
:103910001F0F1B01C01AB941130C73431F0B1B056A
:10392000C01AB941860D8F023E436643360C092DFD
:1039300024DB520A7243801A7703460A6643360C28
:1039400016235B1BDE40DF40BF1964466643821BC3
:103950007046043506330100D940A840C01900D391
:103960000131A24206D20023F0BD0000000000D0C9
:10397000FFFFFFFF121B0130F3D3F1E709277F1B85
:10398000FE406446A2B27243801A00D20139220C72
:103990007243130C1204821A99410B0070460435CD
:1039A00013370100F940A840801900D30131002BE2
:1039B00002D1A2420AD2F0BD013000D30131121B64
:1039C000FAD2013BF8D1A24200D2F0BD013000D3BF
:1039D0000131121BF7E7F0B51C0C00D080E00CB4ED
:1039E00000251C0A04D11B02160E334312020835AF
:1039F0001C0B04D11B01160F3343120104359C0B21
:103A000004D19B00960F334392000235DC0B02D1A8
:103A100092185B4101351C00971864410134464FF0
:103A20007C66464C3C660E0CFFE7FFE7FFE7C046AE
:103A30003C6F6643360C7703BE4697B27743C01B94
:103A400000D20139C01B00D201399FB27743C91B94
:103A5000C91B170C77437E04FF0B801BB941CE08AE
:103A60006643360C0C2D33DBB644120B1F053A436C
:103A70001B0B97B27743C01B00D201399FB277432B
:103A8000C91B170C77433E043F0C801BB941860DC0
:103A90008F023E43664329277F1BFE400C3D77463D
:103AA000AF40BF1930BCA2B2ABB272437343801AAD
:103AB0009941220C7243130C1204801A994102009E
:103AC0000B000137001BA941F9D2781E0021F0BD7F
:103AD0000C277F1BFE4077467F0BAF40FF19E0E7C6
:103AE00000245D1C07D0144F7D663966FFE7FFE7B1
:103AF000FFE7FFE73C6F95B29EB265436643401B0C
:103B0000B141150C1E0C6543664336042F0C3E4331
:103B10002D04401BB141994204D202000B00200049
:103B20000021F0BD01D19042F7D3801A99410134B0
:103B30009942F2D3F6E70000000000D0FFFFFFFF3C
:103B400048404140484018B41B4B5B68FC46019319
:103B500008BD04DF433E001018B4174B1B68FC4639
:103B6000019308BD00DF4D3E00109446134A926F4A
:103B7000920809D2624618B40F4BDB68FC460193E9
:103B800008BD0CDF054100100C4AF0B5146E556EEF
:103B9000576F166F6246FFF7EEFF084A14665566C8
:103BA00057671667F0BD18B4034B9B68FC4601933A
:103BB00008BD08DFA93F0010E8030020000000D086
:103BC000FFB550404240504059404B40594000E002
:103BD000FFB5154F4C00640D03D0BC4204D10C035B
:103BE00014D80020090D09055C00640D03D0BC4207
:103BF00004D11C030AD800221B0D1B0501264B40D3
:103C000009D44B4003D58B4200D18242FFBD99427B
:103C1000FCD19042FFBD0B43DB1803431343F5D0A7
:103C2000C9434918FFBD0000FF07000000B5FFF7BA
:103C3000CFFF01D0002000BD012000BD00B5FFF77F
:103C4000C7FF804100BDC04600B5FFF7C1FF01D9E5
:103C5000002000BD012000BD00B5FFF7B1FF01D974
:103C6000002000BD012000BD00B5FFF7A9FF804185
:103C700000BD00000021002805D17047C117484051
:103C8000401AFAD0C90713B5064B1B6898470CBCFD
:103C9000441CA2401005120B0349091B09051943D6
:103CA000114310BD940600201F04000010B54C0005
:103CB000620D8023D218DB00D21A5B057E2A10DD4C
:103CC0009E3A13DACC170903490819435242D140EE
:103CD000640001341532202A05DAD04008436043DD
:103CE00010BD002010BD0846604310BDC80FC018AD
:103CF000013810BD18B4044B5B6AFC46019308BD43
:103D000024DFB54200100000E8030020132370B543
:103D10001D78012D1ED019DD2D48FFF787FC060008
:103D20002C48FFF783FC023803789B007F2B48DD8B
:103D3000294C80223100200000F0D2FB022D2DD032
:103D40002648FFF76BFC264B186070BD224C254BB4
:103D5000A364F5E7234B204C23606360A360E3601A
:103D600023616361A361E36123626362A362E3622F
:103D700023636363A363E36323646364A364E3640F
:103D800023656365A365E36523666366A366E366EF
:103D900023676367A367E367A364D1E7124B1A88BD
:103DA000B5231B029A4209D1104A114B12889A423C
:103DB00004D1104A104B12889A42C8D00020FEF756
:103DC00087F932210D4B0E4A0E48FEF7DBF8C0464C
:103DD0005344000053460000E80300204C33000029
:103DE00094060020093E001054380000D838000026
:103DF000494600009C38000059460000105600104B
:103E0000B45600106456001007B56046002800D173
:103E100000BE01880A0A0230DF2AFAD1C9B282083C
:103E200004D3028840880004104300E00068024A7E
:103E30005050039007BD0000E80300200FB403BCFE
:103E40000CBCF0B50124E407634000E0F0B50C0DB4
:103E5000CF0F661E3605891B640503D3C943404254
:103E600000D30131640D03D0661CF60A07D0E41BB1
:103E700000207F00791C89078912803C24031D0DD6
:103E8000DF0F6E1E36059B1B6D0503D3DB435242CD
:103E900000D301336D0D03D06E1CF60A07D0ED1B65
:103EA00000227F007B1C9B079B12803D2D032F1B54
:103EB000661B58D4A446202E46DA20371400BC4096
:103EC0001D00BD40F24033412A4380185941CB0FB9
:103ED00005D0C943C043002264425041514162466B
:103EE0004D0D28D10D0D07D100281FD024194041B8
:103EF0004941013A0D0DF9D0640006D3013000D3D9
:103F00000131002C01D140084000013A0BD4941C2F
:103F1000E40A04D112051144DB071944F0BDD907A6
:103F2000204B194300E0D9070020F0BD0029DDD166
:103F3000002CDBD1F0BD0132C6074008CD07284375
:103F40004908002EE1D0D9E73C2E29DA203E40373F
:103F50001400BC4000D00124F24014431A00BB40BE
:103F60001C43D317ACE7AC46202F08DA20360400F8
:103F7000B4400D00B540F84039412843A5E73C2F37
:103F80000CDA203F40360400B44000D00124F84051
:103F900004430800B1400C43C117EAE710001900C0
:103FA000002494E70000F07FF0B50C0D661E360586
:103FB000891BE60A6405640D02D0651CED0A04D075
:103FC000002001210905803C2403A4461C0D671E26
:103FD0003F05DB1BE70A6405640D02D0651CED0A92
:103FE00004D0002201231B05803C24037740644455
:103FF00097B484B296B27443070C7E43150C6F439A
:1040000080B26843361802D3012000043F18300400
:10401000350C00197D41844688B29AB250430C0C8D
:1040200062431F0C7C438EB27E43921902D3012659
:104030003604A4191604170C3618674101BC81B266
:104040009AB25143040C62431B0C5C4380B2584348
:10405000121802D30120000424181004130C401875
:1040600063412D185E410020474106BC88B293B2DF
:1040700058430C0C6343120C544389B251435B18F0
:1040800002D301210904641819041A0C09186241A9
:104090006D1856410020474118BCF902720D1143BA
:1040A000F0026A0D1043ED020A0D03D16D19404173
:1040B0004941013B124E9B1B7600B3420ED26D006C
:1040C00007D30130002671416646354301D14008CF
:1040D00040001B05C918E4072144F0BD0BDA013389
:1040E00006D1013004D101314F0D01D04908F2E76A
:1040F000E1070020F0BD013631050020EBE70000AC
:10410000FF030000F0B51C0D671E3F05DB1BE70A2F
:104110006405640D02D0661CF60A04D00022012357
:104120001B05803C2403D0252D060026F6432E6671
:104130001E096E66CE0FF619B44649004F0D02D027
:104140007E1CF60A03D000200021403F3F033E1BA7
:10415000B600B444013F7F05C91B49082E6F0136E4
:1041600076089C02950D25437543ED137543AD13F9
:1041700001356D10F603761B0CB4CC02450D2C43B3
:10418000A2B2B3B25A43270C7B43350C6F43A4B29F
:104190006C431B1902D3012424043F191C041D0C79
:1041A000A4187D4124196D41009A91B2ACB26143CB
:1041B000170C7C432B0C5F4392B25A43A41802D3D2
:1041C00001221204BF182204230C52187B41019CC7
:1041D0006C431B19520ED9010A434401A01A81B243
:1041E000B2B2514303145A43360C734387B2774338
:1041F000D617D21900277E4136049B191704160CD6
:104200007F185E417316ED18F30100268033754167
:10421000A90F06D16400690AE8055B0A184309D2B0
:104220002FE00422944480337541A90AA8059B0A13
:10423000184326D3404149412404009A019B0D00B4
:104240005543641B4343E41A95B286B27543170C79
:104250007E43030C5F4392B25A43B61802D3012245
:104260001204BF183204330C52197B4152429C4154
:10427000002C02D40022013051414008CA071043EB
:10428000490802B06246D7079210084BD218084B73
:104290009A4203D212058918C919F0BD0020002ADC
:1042A00001DC3900F0BD01331905F5E7FD0300001D
:1042B000FE070000002200B5203200F004F80800DC
:1042C00000BD000000220B150AD410B5944600F082
:1042D00031F81414013400DA0021CB17144C2047B4
:1042E0000020002170476244343A0CD40C2A07DACB
:1042F00004009140904052422032D440214310BDEE
:10430000D843D94310BD203207D40C4694405242C2
:1043100020321141D040204310BD0800C91720327F
:1043200003D452422032104110BD1800190010BDB4
:10433000E74200100A0DCC0F531E1B05C91A520587
:1043400003D3C943404200D30131520D03D0531C63
:10435000DB0A07D0121B00206400611C8907891248
:10436000803A1203014BD21A70470000FF0300008D
:1043700051434343C9188C46110C83B24B4310B4CC
:10438000040C614392B280B2504362431C041B0C84
:10439000001910BC59411304120CC018514161445A
:1043A00070470000132310B529481C78FFF73EF929
:1043B0000100012C0FD008DD831E1B789B007F2B92
:1043C00040DD8022234800F08BF82348FFF726F9D0
:1043D000224B186010BD1F4C5422200000F080F8C2
:1043E0001F4A204B12889A4229D1A72292011E4BC4
:1043F00012889A4223D11D4B1A881D4B9A421ED116
:1044000094231C4A9B0112889A4218D11A4B1A888D
:104410001A4B9A4213D11A4A1A4B12689A420ED179
:10442000194B6365A365E36523666366A366E3666C
:1044300023676367A367E3672362E361C5E7134804
:10444000FDF746FE4221124B124A1348FDF79AFD32
:1044500053460000E80400204C330000940600207E
:10446000EE290000C40F0000C20D0000962B0000D2
:10447000C0B50000182B0000CC2A000010B50000C9
:10448000FC2C000051ED87649D440010085300107F
:10449000C856001048570010FC56001007B560467B
:1044A000002800D100BE01880A0A0230DF2AFAD1B2
:1044B000C9B2820804D3028840880004104300E097
:1044C0000068024A5050039007BD0000E804002035
:1044D00001480421014B1847B00200203D3600106E
:1044E000014B5B6818470000B0020020030010B5C4
:1044F000080011001B68984710BDC046F0B546463D
:104500004F46D646C0B5437D80460E001700002BAF
:1045100046D0002A3FDD4B1E9946244B012500243E
:1045200000209A460DE04B461B5D0D3B5A4253411D
:10453000325DDBB20A2A0BD02B00013401359F42D9
:104540001ADD002CEFD14346325D1B7D0A2AF3D1E0
:10455000002BF1D1A04204DA4346211A1B6830181F
:104560009847434650461B6802219847013428006B
:104570002B0001359F42E4DC874204DD4346391AB3
:104580001B6830189847F619013E33780D3B5A42A4
:10459000534142461375E0BCBA46B146A846F0BD49
:1045A0000368110030009847F5E7C046D457001063
:1045B000F0B5C6460C000968060000B5802906D093
:1045C0004B1C23606418267180BCB846F0BD0F4BAD
:1045D0001D68002D16D0231D98460D4F02E02D6951
:1045E000002D0FD02B68002BF9D03B68002B01D099
:1045F000AB42F4D1280041462268FFF77FFF2D69C6
:10460000002DEFD101230021DBE7C0467C0600200E
:10461000800600203F2110B5024B034A0348FDF7F6
:10462000B1FCC046044C0010BC570010204C0010D8
:10463000F0B54546DE464E465746E0B585B0914654
:104640001C0080460D00FCF757FE02000B1E60DBCD
:104650000027314E92197B41002B02DA01222F4BA9
:1046600052422F4908008B4600F04EF901906B1C16
:1046700003D1404600F0FEF80500002C31D1294F4F
:10468000294B1C68002C22D04B46002B2BD0274BEB
:10469000994602ABDE1D0A239A4602E02469002CEB
:1046A00015D02368002BF9D04B461B68002B01D096
:1046B000A342F3D120002A004146B84753462000C8
:1046C000012231003370B8472469002CE9D1019BE5
:1046D000002B1AD105B0F0BCBB46B246A946A04695
:1046E000F0BD134FCCE7114E02E02469002CEED050
:1046F0002368002BF9D03368002B01D09C42F4D101
:104700002A0041462000B847EFE7584600F0E4F899
:10471000E0E7FFF77FFFC04640420F00FFFFFF7F4B
:10472000C8020020FD4400107C0600208006002006
:10473000ED44001070B5040000F09CF80023010067
:10474000050001222000FFF773FF084B1C68002CB6
:1047500006D06368002B05D098472469002CF8D157
:10476000280070BD2469002CF3D1F9E77C060020F5
:10477000F0B5CE46474680B5A5B004000D00FCF765
:10478000BBFD02000B1E58DB00212D4812184B41C7
:10479000002B02DA01222B4B52422B4E300000F04C
:1047A000B3F800230700039322002B00274803A936
:1047B000FEF71CFF039B8046002B28D0244B1D686E
:1047C0009946002D37D0234C02E02D69002D11D0E1
:1047D0002B68002BF9D02368002B01D0AB42F4D119
:1047E000039B28001A0004A90193FFF787FE2D6997
:1047F000002DEDD14B461C680395002C0BD1002FEA
:1048000015D1404625B0C0BCB946B046F0BD104BEE
:104810001C68002CF3D06368002B06D098472469ED
:10482000002CECD06368002BF8D12469F1E730004C
:1048300000F052F8E5E70395E1E7FFF7EBFEC0462D
:1048400040420F00FFFFFF7FC8020020B14500106B
:104850007C060020800600200FB400B583B004A9B8
:1048600001C90191FFF784FF03B008BC04B01847E9
:104870000020704710B583070AD00300032102E02F
:1048800001330B4205D01A78002AF9D1181A10BD4D
:10489000030019680C4A0D4C8A188A4322420FD132
:1048A0005968094A04338A188A43224208D1596850
:1048B000054A04338A188A432242F1D000E00133CA
:1048C0001A78002AFBD1E1E7FFFEFEFE808080809F
:1048D000F8B5C0460000000001B40248844601BC9F
:1048E000604700BFB101002001B40248844601BC0A
:1048F000604700BFF901002001B40248844601BCB2
:10490000604700BFF901002001B40248844601BCA1
:08491000604700BF51010020C7
:104918006F6B000030783163203D3D20282A696E96
:104928007374293E3E31317500000000433A2F5020
:10493800726F6772616D2046696C65732F70696369
:104948006F2D73646B2D6D61737465722F73726351
:104958002F7270325F636F6D6D6F6E2F6861726456
:10496800776172655F6972712F6972712E630000D9
:1049780064656C7461203E3D202D32303438202629
:10498800262064656C7461203C3D2032303436202A
:10499800262620212864656C746120262031290090
:1049A80063757272656E74203D3D205F5F756E6839
:1049B800616E646C65645F757365725F697271209E
:1049C8007C7C2063757272656E74203D3D20686141
:1049D8006E646C65720000002165786365707469A7
:1049E8006F6E207C7C20657863657074696F6E20BB
:1049F8003D3D206E756D202B20565441424C455F3D
:104A080046495253545F49525100000021286465B9
:104A18006C7461203E3E20313175290066616C73EB
:104A28006500000069735F7368617265645F69722D
:104A3800715F7261775F68616E646C657228736C10
:104A48006F745F68616E646C657229006578636570
:104A58007074696F6E000000666F756E6400000008
:104A68006972715F6164645F7461696C5F746F5FC0
:104A7800667265655F6C697374000000696E7365C2
:104A880072745F6272616E63685F616E645F6C69A5
:104A98006E6B00006972715F72656D6F76655F6835
:104AA800616E646C657200006D616B655F62726156
:104AB8006E6368007265736F6C76655F6272616EB3
:104AC800636800006972715F7365745F6578636C11
:104AD80075736976655F68616E646C657200000065
:104AE800746F74616C000000433A2F50726F6772E4
:104AF800616D2046696C65732F7069636F2D7364EF
:104B08006B2D6D61737465722F7372632F636F6D94
:104B18006D6F6E2F7069636F5F73796E632F6D753C
:104B28007465782E630000006D74782D3E636F7293
:104B3800652E7370696E5F6C6F636B006C6F636B6F
:104B48005F69735F6F776E65725F69645F76616CCA
:104B58006964286D74782D3E6F776E657229000040
:104B68006D74782D3E656E7465725F636F756E74D3
:104B7800000000006D757465785F657869740000E1
:104B88006D757465785F656E7465725F626C6F636E
:104B98006B5F756E74696C006964202626206964F1
:104BA800203C3D20706F6F6C2D3E686561702D3E16
:104BB8006D61785F6E6F646573000000433A2F5033
:104BC800726F6772616D2046696C65732F706963D7
:104BD8006F2D73646B2D6D61737465722F737263BF
:104BE8002F636F6D6D6F6E2F7069636F5F74696D82
:104BF800652F74696D652E630000000075735F731F
:104C0800696E63655F626F6F74203C3D20494E5446
:104C180036345F4D41580000433A2F50726F677227
:104C2800616D2046696C65732F7069636F2D7364BD
:104C38006B2D6D61737465722F7372632F636F6D63
:104C48006D6F6E2F7069636F5F626173652F696E38
:104C5800636C7564652F7069636F2F747970657301
:104C68002E6800006964202626206964203C3D20C7
:104C7800686561702D3E6D61785F6E6F6465730065
:104C8800433A2F50726F6772616D2046696C657385
:104C98002F7069636F2D73646B2D6D61737465720A
:104CA8002F7372632F636F6D6D6F6E2F7069636FF3
:104CB8005F7574696C2F696E636C7564652F7069B4
:104CC800636F2F7574696C2F70686561702E68004A
:104CD8006368696C645F69640000000070617265F4
:104CE8006E745F696420213D206368696C645F6944
:104CF8006400000064656661756C745F616C617264
:104D08006D5F706F6F6C5F696E697469616C697AE9
:104D180065642829000000002170685F636F6E7465
:104D280061696E735F6E6F646528706F6F6C2D3E7E
:104D3800686561702C2072657573655F6964290008
:104D480072656D6F7665645F6964203D3D206E65B0
:104D580078745F696400000063616C6C6261636B06
:104D680000000000706F6F6C2D3E616C61726D5FAA
:104D7800696E5F70726F6772657373203D3D206D59
:104D8800616B655F7075626C69635F6964286964EB
:104D98005F686967682C206E6578745F69642900AC
:104DA8006964202626202170685F636F6E746169CC
:104DB8006E735F6E6F646528686561702C20696426
:104DC8002900000021686561702D3E667265655F87
:104DD8007461696C5F696400616C61726D5F6964BC
:104DE80020213D20706F6F6C2D3E616C61726D5F8C
:104DF800696E5F70726F677265737300726300002B
:104E0800417474656D7074656420746F20736C658B
:104E1800657020696E73696465206F6620616E2015
:104E2800657863657074696F6E2068616E646C651F
:104E3800723B2075736520627573795F7761697459
:104E480020696620796F75206D7573740000000005
:104E5800616C61726D5F706F6F6C5F63616E6365CB
:104E68006C5F616C61726D007570646174655F750B
:104E7800735F73696E63655F626F6F740000000033
:104E8800616C61726D5F706F6F6C5F616C61726D88
:104E98005F63616C6C6261636B0000006765745FDF
:104EA800656E747279000000616C61726D5F706F7D
:104EB8006F6C5F6765745F64656661756C7400002C
:104EC8006765745F656E7472795F69645F68696746
:104ED8006800000070685F667265655F6E6F646584
:104EE8000000000070685F6164645F6368696C64F7
:104EF8005F6E6F646500000070685F6765745F6E61
:104F08006F6465006164645F616C61726D5F756E8A
:104F18006465725F6C6F636B0000000048617264C7
:104F28007761726520616C61726D20256420616C07
:104F3800726561647920636C61696D656400000065
:104F480074696D65725F68772D3E696E747320268B
:104F5800203175203C3C20616C61726D5F6E756D0F
:104F680000000000433A2F50726F6772616D20464F
:104F7800696C65732F7069636F2D73646B2D6D6138
:104F8800737465722F7372632F7270325F636F6D03
:104F98006D6F6E2F68617264776172655F74696D99
:104FA80065722F74696D65722E63000068617264A2
:104FB800776172655F616C61726D5F7365745F7450
:104FC8006172676574000000726F6F745F696400D6
:104FD800433A2F50726F6772616D2046696C657332
:104FE8002F7069636F2D73646B2D6D6173746572B7
:104FF8002F7372632F636F6D6D6F6E2F7069636FA0
:105008005F7574696C2F70686561702E63000000AD
:105018002170685F6765745F6E6F64652868656195
:10502800702C20726F6F745F6964292D3E736962FA
:105038006C696E67000000002170685F6765745FC7
:105048006E6F646528686561702C20726F6F745F7D
:105058006964292D3E706172656E74006E65775FB4
:105068007375625F7472656520213D2068656170A3
:105078002D3E726F6F745F696400000070685F7224
:10508800656D6F76655F616E645F667265655F6E9C
:105098006F64650070685F72656D6F76655F616EDD
:1050A800795F68656164000070685F6164645F636C
:1050B80068696C645F6E6F646500000070685F67A4
:1050C80065745F6E6F646500636C6F636B735F68B4
:1050D800772D3E72657375732E73746174757320C2
:1050E8002620434C4F434B535F434C4B5F5359531C
:1050F8005F52455355535F5354415455535F52457E
:105108005355535345445F4249545300433A2F5033
:10511800726F6772616D2046696C65732F70696381
:105128006F2D73646B2D6D61737465722F73726369
:105138002F7270325F636F6D6D6F6E2F686172646E
:10514800776172655F636C6F636B732F636C6F63FA
:105158006B732E63000000002128636C6F636B7310
:105168005F68772D3E72657375732E7374617475FD
:1051780073202620434C4F434B535F434C4B5F53A4
:1051880059535F52455355535F5354415455535FD8
:1051980052455355535345445F42495453290000DF
:1051A800556E657870656374656420636C6F636BB6
:1051B80073206972710A00007372635F66726571A9
:1051C800203E3D206672657100000000636C6F63CD
:1051D8006B5F636F6E6669677572650076636F5F94
:1051E80066726571203E3D20285049434F5F504C00
:1051F8004C5F56434F5F4D494E5F465245515F4B9A
:10520800485A202A204B485A292026262076636FA0
:105218005F66726571203C3D20285049434F5F50BE
:105228004C4C5F56434F5F4D41585F465245515F66
:105238004B485A202A204B485A290000433A2F50FD
:10524800726F6772616D2046696C65732F70696350
:105258006F2D73646B2D6D61737465722F73726338
:105268002F7270325F636F6D6D6F6E2F686172643D
:10527800776172655F706C6C2F706C6C2E630000C8
:105288006662646976203E3D2031362026262066F7
:1052980062646976203C3D203332300028706F7399
:1052A800745F64697631203E3D20312026262070C7
:1052B8006F73745F64697631203C3D20372920265E
:1052C800262028706F73745F64697632203E3D2013
:1052D8003120262620706F73745F64697632203C13
:1052E8003D20372900000000706C6C5F696E69749E
:1052F800000000002C2066756E6374696F6E3A209A
:1053080000000000617373657274696F6E20222556
:105318007322206661696C65643A2066696C652051
:10532800222573222C206C696E652025642573253F
:10533800730A000031203D3D202875696E74707431
:10534800725F74296C2D3E7370696E5F6C6F636B4E
:1053580000000000433A2F50726F6772616D20465B
:10536800696C65732F7069636F2D73646B2D6D6144
:10537800737465722F7372632F7270325F636F6D0F
:105388006D6F6E2F7069636F5F72756E74696D658E
:105398002F72756E74696D652E6300000A2A2A2AB9
:1053A8002050414E4943202A2A2A0A000A000000B8
:1053B80072756E74696D655F696E697400000000CE
:1053C800666E692B00000000666E6900666E692DC6
:1053D80000000000BA2B0010702B0010702B00107A
:1053E800B22B0010702B0010702B0010702B0010C7
:1053F800702B0010702B0010702B0010702B0010F9
:10540800AA2B0010702B0010A22B0010702B00107C
:10541800702B00109A2B00106C2D0010CC2B001054
:10542800602D0010CC2B00107C2D0010CC2B001010
:10543800CC2B0010CC2B0010CC2B0010CC2B001048
:10544800CC2B0010CC2B0010C22B0010CC2B001042
:10545800CC2B0010CC2B0010CC2B0010CC2B001028
:10546800C22B0010C22D00102C2B00102C2B00106A
:105478002C2B00102C2B00102C2B00102C2B001088
:105488002C2B00102C2B00102C2B00102C2B001078
:105498002C2B00102C2B00102C2B00102C2B001068
:1054A8002C2B00102C2B00102C2B00102C2B001058
:1054B8002C2B00102C2B00102C2B00102C2B001048
:1054C8002C2B00102C2B00102C2B00102C2B001038
:1054D8002C2B00102C2B00102C2B00102C2B001028
:1054E8002C2B0010E82F00108E2D0010E82F001034
:1054F8002C2B00102C2B00102C2B00102C2B001008
:105508002C2B00102C2B00102C2B00102C2B0010F7
:105518002C2B00102C2B00102C2B00102C2B0010E7
:105528002C2B00102C2B00102C2B00102C2B0010D7
:10553800742C00102C2B00102C2B00102C2B00107E
:105548002C2B00102C2B00102C2B00102C2B0010B7
:105558002C2B00102C2B0010742C0010D62D0010B2
:10556800742C0010E82F00108E2D0010E82F00106A
:105578002C2B0010742C00102C2B00102C2B00103E
:105588002C2B00102C2B00102C2B0010742C00102E
:10559800F82E00102C2B00102C2B00102C2E001095
:1055A8002C2B0010742C00102C2B00102C2B00100E
:1055B800742C001000000000000000000000F03F04
:1055C80000000000000024400000000000005940D6
:1055D8000000000000408F40000000000088C34029
:1055E80000000000006AF8400000000080842E419E
:1055F80000000000D01263410000000084D79741EA
:105608000000000065CDCD412A282875696E7438E0
:105618005F74202A29726F6D5F646174615F6C6FBB
:105628006F6B757028726F6D5F7461626C655F6314
:105638006F6465282753272C2027462729292D32D0
:1056480029202A2034203E3D2053465F5441424CB5
:10565800455F56325F53495A45000000433A2F5080
:10566800726F6772616D2046696C65732F7069632C
:105678006F2D73646B2D6D61737465722F73726314
:105688002F7270325F636F6D6D6F6E2F7069636F0D
:105698005F646F75626C652F646F75626C655F69B6
:1056A8006E69745F726F6D2E630000005F5F6165E5
:1056B8006162695F646F75626C655F696E697400C9
:1056C8002A282875696E74385F74202A29726F6DCC
:1056D8005F7461626C652D3229202A2034203E3D9A
:1056E8002053465F5441424C455F56325F53495AF6
:1056F80045000000433A2F50726F6772616D204673
:10570800696C65732F7069636F2D73646B2D6D61A0
:10571800737465722F7372632F7270325F636F6D6B
:105728006D6F6E2F7069636F5F666C6F61742F6643
:105738006C6F61745F696E69745F726F6D2E630060
:105748005F5F61656162695F666C6F61745F696EF6
:10575800697400004465627567000000626F6F74C9
:10576800325F77323571303830000000312E352EF7
:10577800310000007069636F000000006D61696EA0
:10578800000000004A616E2020332032303234009D
:1057980006005250BBFF3CB67C5700100600525022
:1057A800E182887F6457001006005250D3F075429A
:1057B8005C5700107570646174655F75735F736919
:1057C8006E63655F626F6F74000000000D0A000071
:1057D800AC020010A00200109402001098570010AC
:0C57E80088020010A4570010B0570010F9
:1057F400F0B546464F46D646C0B5066804001700C5
:105804009846002E30D0D0231B061B689A460023EE
:1058140099460DE02268BFF35F8F4946116083F318
:1058240010883800414600F083F800281AD1266811
:10583400EFF3108372B63568002DFCD0BFF35F8F91
:1058440025797F2DE6D9524622712268BFF35F8FF6
:105854000021116083F310880120E0BCBA46B146F0
:10586400A846F0BD0020F8E78521024B024A034810
:1058740000F066F8304B0010884B0010F04A00101E
:1058840070B501000468EFF3108C72B6206800282C
:10589400FCD0BFF35F8F04240C57002C12DB086884
:1058A400BFF35F8F002505608CF31088D02000259E
:1058B400000645570020A54200D170BD0800FFF73F
:1058C40097FFFAE7D0231B061B680B710B68BFF325
:1058D4005F8F00221A608CF310880120EDE7C04628
:1058E40010B50268EFF3108172B61368002BFCD078
:1058F400BFF35F8F03797F2B0AD8FF2303710368FB
:10590400BFF35F8F00221A6081F3108840BF10BD7F
:10591400B421024B024A034800F012F8444B001031
:105924007C4B0010F04A00107047C0460000000095
:1059340001B40248844601BC604700BFE110001076
:1059440001B40248844601BC604700BF851F0010B3
:105954001000000000000000000001000000000032
:105964000000000000000200000000000000000031
:105974000000030000000000000000000000FF0021
:105984000000000001B5486801318E4600477046AA
:1059940009380149884701BDED0600108402002042
:1059A40000000000E80200203C0600200000000087
:1059B400000000004C060020000000000000000071
:1059C40010000000000000000000000000000000C3
:1059D400503300004C3300005433000052330000B5
:1059E4004D5300004D430000533400004334000085
:1059F40000000000000000000000000000000000A3
:105A0400D14400100D3600100D3D0010A5430010C8
:045A1400E502001097
:04000005100001E9FD
:00000001FF
